:400000000008002011000000191400001914000008B502F01DFD01F007FA000010B572B6EE22234B12021A60EE22224B224C1A60224B04321A60224B01321A600C23214A43
:4000400018201360204A13600222204B1A60DB221F4B12011A6003221E4B1A601E4B21321A601E4B203A1A601223236002F0B2FBFE2280211A4B12021A601A4B1A4A490063
:400080001A601A4A01201160194A1A600022194B1A60194B40321A60184B01321A6011232360174B313A1A6001F006FA10BDC0460003024000040240300010400000044082
:4000C0001800044000010440180104400003044008030440000404400804044018040440000301400000014040FF00800403014041FF008028000340080101400001014031
:40010000C0020B4010B5064C2378002B07D1054B002B02D0044800E000BF0123237010BD2001002000000000182E000008B5084B002B03D00748084900E000BF07480368B3
:40014000002B00D108BD064B002BFBD09847F9E700000000182E000024010020880000200000000008B500F03DF800F0E5F800F0CBFB01F023F9F8E708B502F087FC1248A8
:4001800000F04FFF002801D101F036F90F4A1368013313600E4A13680133136000230D4998004258013301324250042BF7D10A4A136801331360094A536801335360084A9A
:4001C00013680133136008BD8F020020D4010020BC01002054010020C4010020AC01002040010020F0B5A3B072B68021424A434E136809040B431360301C002100F00AFF80
:400200003F48404900F008FF3F48012100F004FF85213E48490000F0FFFE3D48002100F0F9FE3C48012100F0F5FE62B601F0B2FB01F0B0FB00F0D4FE02A80021802202F030
:40024000E2FD371C0023FE2292019A18127802A9CA540133802BF6D1481C082100F0B6FA02AB1B78E32B03D102AB5B7A834206D0FF23BB7100F052FE0023BB7108E0002476
:40028000E0B202AB0134195D00F0E4F8082CF7D172B6002400F0F8F91F4DE3B2181C019300F094F9011C281C00F0B6FE019800F07FF9011C281C0134103000F0ADFE02356B
:4002C000042CEAD162B651213A1C972001F0A8F901F01CF902F0E2FB104802F001FC0020732101F053F802F0E1FB301C012100F091FE23B0F0BDC046000003408F020020A9
:40030000E202002077140000E4020020E6020020E9020020E8020020B90200207901000008B5002002F03EF80A2002F0B1FA012002F038F808BD000070B5314800F071FEE5
:400340003D2801D102F0C2F92E4D281C00F069FE2D4B041E012C2DD1186002F0DEFB061C01F04CF983060FD401F052FB01F0DCF802F0A6FA01F0DCF801F04BFB301C02F0E8
:40038000D0FB224B1C7002E0301C02F0CAFB281C00F047FE01281AD000F094FA01F046FC00F020FA01F0AAFC732000F0D7FF01F023F80CE01A68012A09D100241C6000F04E
:4003C00013F91348211C00F025FEFFF7A9FF00F011F9104800F025FE002801D000F02AFD0D4C201C00F01DFE3E2807D100F0FCF800F094FD201C002100F00CFE70BDC04666
:40040000900200208F0200208C00002094000020E0020020970200209602002010B5041C034800F0FEFD0123A3401840C0B210BD9502002072B662B6044B1A5C1C2353433C
:40044000034AD3189B68587A7047C0461C2E0000102F000072B6054B1A5C1C235343044AD3189B68597262B67047C0461C2E0000102F0000F0B5384C061C211C89B0083107
:40048000082206A802F0B6FC06AB9A5D1C23A75D32497B43CB185B686421188801238340581E504302F0E8FB00257F23041C03932B1C01950295029A039952185210049281
:4004C000934228D06B461B7C301C191C0593FFF7C1FF381C002101F033FF01F071FE01F021FC002802D002F0DDF9F8E71C237B431A4AD3189B681B88A34203D30193059B90
:40050000029302E01D1C059B0393029A0399049B8A42D0D11DE02B1BA54200D2631B019A0199A21AA14200D30A1B301C0399934200D30299FFF78EFF381C002101F000FF38
:4005400001F03EFE01F0EEFB002802D002F0AAF9F8E709B0F0BDC0461C2E0000102F000082B072B6064B1B5C01931C23019A5343044AD3185B6862B6987AC0B202B07047EA
:400580001C2E0000102F000082B072B6064B1B5C01931C23019A5343044AD3185B68997262B602B07047C0461C2E0000102F0000044B1A5C1C235343034AD3185B68588800
:4005C0007047C0461C2E0000102F0000044B1A5C1C235343034AD3185B68D8897047C0461C2E0000102F00000022014B1A7070473C010020F7B572B600251F4E1F4F301C4D
:400600003B1C1033EC5C00F00FFD1C223B5D53431B4AD3185B6801935B8883420ED0201C184B1C304000C018023000F0FDFC1C22EB5D5343124AD3185B685880301C103893
:4006400000F0F2FC019BDB8983420ED00D48143464002018023000F0E7FC084BEA5C1C235343074AD3185B68D88101350236042DC4D162B6F7BDC046C90200201C2E0000BA
:40068000102F00008F020020F8B572B60024184E331C1033E75C1436381CFFF761FF011C201C144D0A30401900F0B4FC381CFFF7C1FE011C201C1A30401900F0ABFCA65D96
:4006C000301CFFF74DFF011C201C1230401900F0A1FC301CFFF7AEFE011C201C22304019013400F097FC042CD1D162B6F8BDC0461C2E00008F02002038B51C234343174A8E
:40070000174DD3189A6859682B68041C022B0FD0032B1BD0012B1FD101F05CF90021114B201C596001F05CFA0223002813D113E0138852889B1A4A88934201DA03230AE0D4
:4007400001F048F90022074B5A6005E0054B5B68102B01D901232B6038BDC046102F0000900000203C010020F8B5134C134D23181A7D1B7CA15C1C22E65C131C734351434B
:40078000EB189B6869181B8889680D4F76000988F353802636029E19235C5343094AEB189C68731A934200D9131C2380064B18184A3000F031FCF8BD1C2E0000102F00000E
:4007C00026030020FFFF00008F02002000234118884204D0027801309B18DBB2F8E75842C0B2704710B500241C236343084A201C9B189B6800211A8800F048FC201C0134E0
:4008000001F068FA092CEFD1062000F039FC10BD102F0000034A044B11680B40184310607047C046C4010B40FFFF3FFF0A68074B1340012802D18022520403E0022802D1FA
:40084000C022920413430B607047C046FFFFFFFC70B5051C80200004FFF7DCFF01201749FFF7E4FF164C002163191B7CE05C01F067FD01F0A5FC01F055FA061E02D002F093
:4008800011F8F8E78020C003FFF7C4FF02200B49FFF7CCFF63191B7D311CE05C01F050FD01F08EFC01F03EFA002802D001F0FAFFF8E7281CFFF758FF70BDC046C4010B40E7
:4008C0001C2E000008B50F4B1A79012A0CD00020FFF7BEFF0120FFF7BBFF0220FFF7B8FF0320FFF7B5FF08BD0021081C197101F027FD01F065FC01F015FA0028E7D001F0F2
:40090000D1FFF8E790000020F0B5CD4B85B01C78E4B2002C00D07DE2FFF7D4FFC94B02941B7A002B00D122E2C74E0021331C1033E35CF55C281C00F07DFB0021281C00F080
:40094000D1FBC24BA900C850021C0021281C00F0E9FB281C012C02D1FFF7CEFE01E001F039F81C23325D5343B94AD3189B68DB88002B01D0012302930134042CD4D10024E2
:40098000E0B2FFF74BFD00287BD0AF4BAD4F1A1C1032A25C3E1C9D5C1C236B43AC4AD3189B680193AB4BE35C0093009AAA4B002A23D0AA4AA25C012A1FD13A1C00260E3293
:4009C00063009E52281C311C01F00AF9009AA300FF18824209D18223BA699B009A421DD902239E4ABE61A35418E0281C311CBE6101F0F6F8974BE05410E00533E25CA3002F
:400A0000012A08D10021F318281C996101F0E8F80936A05502E0F6180023B3618E4A531D0093E35C022B2CD18648884B061CA900CB580E3661008A5B9FB2BA4220D9824EA9
:400A4000D31B18368E5B011C2831B34215DD0B5D0133DBB20B55042B13D90123009AA354A300C018002383611C335D43784B01985D19297E01F014F903E000230B5500E06D
:400A80008F530134042C00D07AE76E4B2C331E1C00231F1C0093F8B2FFF7C0FC002800D1ADE0694B684A1033FB5C0021D35C01931C23019A01985343654AD3189D682C8859
:400AC00001F08EF8002800D18BE01C225E4B5E49FB5C53435E4AD3189A68019BD2885B00CB181B8C9A4200D87BE0564B1A1C3C32BA5C002A04D1191C443340317A54FA548E
:400B00005048021C4032BB5C632B07D80133BB54009A534B50309C52145269E0504B009A995A019B5A00484B3233D35ACA18944202DCCB1A9C420CDA424B0022191C443196
:400B40007A54191C0098483150334452C452326010E044303B5C090203901943201C0322082301F0D4F83E4B040A009AA4B2D452039BF85433680133032B01D8336037E04B
:400B8000304900220B1C00985033C35A32609C420AD3991C8C421FDC69882A71CB1A9BB2E11869805B4214E0981E844214DB68882A71C31A9BB2E0185B42EB80009B5831FB
:400BC0005B5A80B26880984206D26B809C4202D9E31AEB8000E0EA801A4B009A5033D45206E000233360174B6A8800995833CA520198002100F0F4FF124B3C33F854009BF6
:400C00000137023300930436042F00D043E772B60024144DE0B2FFF701FC2F1C061C2037002821D0084B281CE25C1C235343084AD3189E68318800F0EFF9F188381C19E0FA
:400C40008F0200203C0100201C2E00002C020020102F000045010020900000209500002084010020EA020020281C311C00F0D4F9381C311C013400F0CFF90235042CC9D136
:400C80000024654DE0B2FFF7C9FB011E0AD0634B1A1C1432A25C9A5C1C235343604AD3189B681988281C013400F0B6F90235042CE8D10027594BF8B21A1C1032BE5C9C5DB5
:400CC000FFF7ACFB7600574D002834D0201C002100F086FF041C012F0FD1534B002808D15A6E3A4205D05A6F072A05D95866586702E000225C665A675C6E012C10D0002C78
:400D000019D0032C17D8281C00F08BF90323011CB34099430223B3401E1C0E43F1B211E0281C00F07EF90323011CB340B44099432143C9B206E00324281C00F072F9B4407B
:400D4000A043C1B2281C013700F064F9042FB1D1281C00F066F9344B1A781C1C824201D0FFF7DEFA281C00F05CF9207062B62F4B5A7A1D1C012A02D0022A10D01DE0029A06
:400D80002B4B002A02D000221A6016E01B682A2B13D9022373206B7200F0E0FA0DE00021234A1160029A8A4207D0012273205A7200F0D4FA00F020FB2CE001F0AEFE041CCD
:400DC00000F01CFC83060FD400F022FE00F0ACFB01F076FD00F0ACFB00F01BFE201C01F0A0FE01232B7102E0201C01F09AFE0E4A137A002B0ED10E490B790133DBB20B719B
:400E0000192B07D90123137200F010FFFFF7EAFC00F074FF05B0F0BDFA0200201C2E0000102F0000E00200203C01002090000020BC010020F7B500240190019B2341DB0771
:400E400057D5314E201C331C1033E75C03237A0093401A1C2D492E4D0B780A30934340190B7000F0DEF8011C381CFFF78DFB201C1A30401900F0D5F8011C381CFFF7EAFA19
:400E8000331C201C1433E35C12304019009300F0C8F8011C0098FFF777FB201C2230401900F0BFF8011C0098FFF7D4FA1925013DE0B2EDB2FFF7CCFC002DF8D11C23F75D2B
:400EC000144A7B43D3189B68291C1A88381C00F0DDF8381C00F0FEFE1C220D4B60005B30C018335D53430B4AD3189B68198800F093F8013400F09AFE042C9ED106480021FF
:400F000000F088F8F7BDC0461C2E00003C0100208F020020102F000097020020002030B5011CA1B001F00CFA01F04AF900F0FAFE002802D001F0B6FCF8E7041CE0B2FFF78D
:400F40006DFA002819D080200004FFF763FC22490120FFF76BFC214D2B1C1033E05CFFF789FA8020C003FFF755FC143502201A49FFF75CFC605DFFF77DFA0134042CDDD167
:400F80001534013CFFF79EFC002CFAD100F04EFEFFF728FC00F0B2FEFFF776FB80226846211C01F030FFE3236A4613700134601EC0B2FFF73FFA6B461855082CF6D1211C37
:400FC000581CFFF703FC6B46694658727F2001F09FFA21B030BDC046C4010B401C2E000009490A4810B50A68094B04681A402340F024240322438A24240423430A60036016
:401000000120FFF713FC10BDC0010B40C4010B40FFFF30FF01707047CBB2090A0370417070470078C0B270470378407800021843704700001C2343430E4AF0B5D3189B6849
:401040004A000D4F09189A184E000C4D1488F35B705B9C4202D9261C1C1C331C4900785216886E52834200D9031CA34200D2231C1380F0BD102F0000700300203803002088
:40108000014B18707047C0469C000020062370B50C1863430C4E95B29D53F3185D809D8000230A4ED20136187354094E30184354084861000D520848A4000D520749625037
:4010C000074A136070BDC04650020020200200208602002070030020380300204C030020C4010020F0B506240B185C430B4D49002A19675B56889388F719FF181C2358432A
:40110000074B1818836859180B886653F8189388800853800B889380F0BDC04650020020102F00001C23F0B543438BB001917249041CCB1859689B6803910199019D490027
:401140005B186E4902938C4601991B88091860460691890009586A480019405D049008A8C61D6846007C3070029847883078D51BC0B20590604607900598062800D9A3E094
:4011800001F070FD040B1F316D4D8100029BD1015A8000225B4B1A6090E05B4ADB01107801228240013A51435918C140002D00DA8CE0564B6200D35A02229D4200D97EE030
:4011C00084E0524A6000825A954277DDDB015B1859081B0ADF1B039A039B92795B889B189F4273DB6EE0484ADB01107801228240013A51435918464B6200C140D05A08AB74
:401200000733854205DA06221A70013A022C5DD137E04048125A954258DB042231E006223270022C52D1384ADB01107801228240013A51435918C140CB09DF1B002F45DDF3
:40124000019A354B9B189B782E4A052B03D000231360053339E01268192A37D835E02D486200105A854203DBDB01591849082DE0274BD25A08AB0733954201DA062200E074
:4012800003221A7022E0224A6000825A954219DACA09D8019A4202D94118490807E01A4B1A7801239340013B4B43C118D140CB09DF1B039B1A795208974207DC012208AB8A
:4012C000DA7103E00322FAE7012333706846069B079A9B00D150104B019A007C1B199854074A08AB07331B781419019AC909A354029B19800BB0F0BD102F00004C03002007
:4013000020020020C40100209C0000204E2E0000602E00003C2E000086020020002337B5051C019301F0E4FAFA230A249B005D43281C01A901F00AFB002803D1064B019AC9
:401340001A6005E00120013C01F0CCF9002CEFD101F0E8FA37BDC046C801002010B5084C0A2160602368584301F086FC054B18606168054801F080FC0023A060E36010BD3D
:40138000C8010020A000002060EA000038B50D1C041C0A20FFF7C2FF281CFFF7DFFF01F069FB054B1B68C01801F05AFB002C01D001F048FB38BDC046A000002010B50C4CBC
:4013C000E268A3689A4212D30023E36001F066FB0A20FFF7A3FF6068FFF7C0FF01F050FB044B1B68C01801F03BFB01F05FFB10BDC8010020A000002008B501F04FFB01F029
:401400003FFB044B1B68C01801F02AFB01F04EFB08BDC046A000002008B501F0BFFC03680C2B00D1FEE7FEE770B51049104B01394A1C15D000221E685C689D68A018AA42D4
:4014400003D0B058A0500432F8E7021CDC68151AA54202D0002520C2F9E710330139E7E701F0A2FCFEF77EFEFEE7C046010000002C31000008B500239A000A49032B01D8F3
:4014800009498958094801338150202BF4D1FEF7C5FD0022064B1A608022064B92051A6008BDC0461914000000000000000000208000002008ED00E00B4A10B513680028A1
:4014C00003D0802109060B4301E05B005B081360064B202419680A1CA243002801D0221C0A431A6010BDC04600200240280003408021054A08B5136809060B43136007202B
:4015000001F0C6F808BDC0460000084010B5054C2378002B03D100F00FF801232370FFF7E7FF10BDD801002008B500F091F808BD08B500F097F808BD802210B500241A4BFD
:4015400052001A60194A1A4B1A491A601A4B1B4A072013601A4A14601A4A11601A4A13601A4B1C6001F09EF80720032101F078F81749072001F06CF85222164BFF321C60A0
:40158000154B1C60154B1A60154B1C60154B1C60154B1C60154B1C70154B1C70154B1C80154B1C7010BDC0460000084000080040600008403A00FE0007010080000308400B
:4015C0000403084010030840000208400402084079160000C80E0840880E0840480F0840080F0840C80F0840880F0840880300208C030020860300208403002010B507208C
:4016000001F050F81F21054B07201C781A78E4B28A431A7001F03CF8201C10BD8C03002070B5061C0D1C141E0BD0072001F03AF8044B07201C60044B1E80044B1D8001F047
:4016400027F870BD90030020940300208A03002008B500F0C1FE0122014B1A6008BDC046880E0840002208B5024BFF201A6000F0A5FE08BD880E0840F0B59E4B87B01B68C6
:40168000002B00D0984702229B489C4E04689C49FF320D68338822400396029004912DD0202498490A68520052080A60964A1078A04310701078103C204310709348056817
:4016C000254206D1924C24789C4206D01478082501E0022514782C4314708E4C8E4A25682A40226000228D4C226002608C48027080200A68000602430A60F7E0E90601D58B
:4017000088490A600A22154200D185E0864A1268520744D5854A824811680278002A10D0012A3AD1824F834E3888002833D03260814AC9B212680138D218117001333880BE
:401740002BE07E4E37887B4EB94224D2012333607B4B1B88994201D25A1A92B2744B1A80072A02D80123037011E06A4B6B48082A06D1A0261A68360232431A60002305E0BF
:4017800080261A68B60132431A6008230360604B19700B1C01E00222326004213AE05D4802680190920437D50221294008D0654A11681F2206680A4057493140016007E07C
:4017C0005B4E3288083A92B23280082A01D908220121161CD718B81B8446002E0DD0564F013E3F68381C6F46604400904F480068F875F87D009F3870ECE73B1C002908D111
:401800008026019A01981268360232430260434A11600C214C4A11600222154247D0E10613D500213D48016038480160384909788B4200D00832344922400878024320200D
:4018400082430A700021364A117062062DD5202110202D4A13780B4313703C4A2C4B12681B78024211D08025344A314912886D02D21A0A80364A116829431160156835493D
:4018800029401160214A106002E00421234A116001211025304A02981160304A0260304802682A430260234A1160029A1460049A126852071AD5204A1D4914680A88294D83
:4018C000002A07D0E0180078013AC0B22860013392B201E0FF202860234805681F2028400828ECD10A801021204A1160039A138007B0F0BDDC010020400F0840860300206F
:40190000000E0840000008408C030020880F08408403002060000840FF5FFFFFC80F084088030020880E0840CC0F084040030840E00100206C00084090030020940300205B
:401940008A03002008030840C00F08406400084004020840FFFFFEFF800E0840FF0F0000480F08404002084008020840800F084010B5074C2378002B05D100F0F5F800F0A4
:401980004BF90123237000F045F800F069FA10BDE201002038B5FFF7EBFF041E13D100F0F1F9041E0FD101F0B8F8051C00F0BAF9002805D000F076FF281C01F0B2F8F2E7AE
:4019C000281C01F0AEF800F031F900F097F9201C38BD000070B50126082812D80A4B1036DB68C340DB070CD51C254543074B041CED18281C00F03EF8291C061C201C00F0FA
:401A000093F8301C70BDC04698030020102F00007047704700220E4B70B51A610D4C013A0D4D0E4EDA60B54210D00021227D23682970062A07D1E068884204D0628AD979AE
:401A4000520001F0E0F91C34013DECE770BDC04698030020142F0000B4030020AB0300204A880B889B1A0022CA800279934200DDCB807047F0B50025061C2F1C836885B007
:401A8000029343680193037E03930A246C43029B1C19F38A9D420BD2211C039A019800F0C6F8211C071C0198FFF7DAFF0135ECE7381C05B0F0BD0000F7B5CA8A0B695200E5
:401AC0009A18019201228F684D6801998B4227D0F988144C8C466988224201D1E9890A37041CAE79144003D189198C4503D80DE0891B8C4503D9A24208D0141C00E00024FC
:401B000019780139C9B21970002906D1904320430121002C00D1E979197001335200D4E7FEBDC0465555555538B50E4C051C2318187D0B7E062B01D1FFF7BEFF1F22012166
:401B4000631918756B0915400A1C04339B00AA40E158002802D191430A1C00E00A43E25038BDC046980300208A22F8B5184C0021201C520001F047F9164B201C2380B023BE
:401B80005B006380593BFF3BE383631C124C0222211CDA770A318E32223001F02BF90F4B1A1C2133FF33191C231C24328A420DD0D6891D1C301C1468013804D32F780135EC
:401BC00067720A34F8E79B191C32EFE7F8BDC04698030020F6450000742E0000F42E0000021C10B50020082A11D81C235343084CE3185C8EA1420AD234331B78062B06D1B5
:401C0000044849008218137D0320CB40184010BDF42E0000980300200023024A9380024A1360704798030020F80100207047F0B50B884C88A34205D24679E51AB5421DD8C0
:401C4000002603E000261D1B0E7201360779BD420ED8D2B2062A21D10A7924021443FF2254431B02E3181A0A1B0C4B800A7115E04079854212D2002EEBD00FE00C7A007AA9
:401C8000A04202D901340C7208E0D2B20020062A02D04B80087201E00871FAE70020F0BDC9B2062901D1002303710388438000230372704708B51C230A225843044B514383
:401CC0001B189A685018197EFFF7EAFF08BDC046102F000038B51C23041C4343064AD318DB8A5D1E002B05D0201C291CFFF7E2FF2B1CF6E738BDC046102F000010B5092432
:401D0000013C03D3201CFFF7E5FFF9E710BD9840031C80204000801A534341435818000A70470000024B9868802318407047C0469803002010B58024094A640293681C40D8
:401D40001123002C09D1103B082806D8D268C2401A4202D000F0CCFA231C181C10BDC04698030020064B10B59C6880235B021C401120002C02D100F049FA201C10BDC046C7
:401D8000980300200C4B10B59C68802311201C4011D1201CFFF7CEFF002809D1074B082C02D001221A7000E01870FFF7DBFF02E00134092CEDD110BD98030020FC01002049
:401DC00010B5114C63780133DBB263706078C0B2FFF7B0FF6378002805D1082B00D12070FFF7C0FF0FE0094A0006082B05D19168074B0B401843906005E093681B021B0AED
:401E000018439060DDE710BDFC010020980300207FFFFF00064A074B01381A60064A000210601A68002AFCDB044A024B1A60704740000040000001400003014040FF008047
:401E400009221C235B42534304490133FF33CB580621013A1973002AF3D17047102F000008B5FFF7EDFF00F01DF8002008BD0000F8B50A4C0A4E231C0025163B1F68237862
:401E80009D4206D21C206843381800F005FA0135F5E71C34B442EED1F8BDC046262F00002230000070B5FFF7E3FF00231021334A334C1360334A344E1360344A1160344A2D
:401EC00034491360344A13600B6034490B6034490B6034490B603449344B08680340C020C000034380200B60314940010B6803430B6001212F4B3048196003687618234373
:401F0000036080202D4B400518602D482D4B18602D482E4B186011602D4B2E4A1A60C1222D4B52041A60F07FFFF774FF70232B4CF17F25682A489D4300F09EFE294A231C29
:401F4000904201D8202200E0302215431D601B68254A48201343254A136000F0D5FD0F22234B1A600022234B1A60234B0A321A60C022224B12031A6070BDC046F4000B4082
:401F800001000010B4020B4098030020C0020B4020030B4088020B4084010B4080020B4084020B4080010B4000040240FFF0FFFF94020B40A0020B40A8020B40A4020B40E3
:401FC0001100800088010B400001000190020B40C0010B4000008301C4010B40A400002000366E01001BB7000010008000000B4000030B40F0010B4010030B4004020B40AE
:4020000038B5041C00F089FD7F210A4A0A4D12782B68A418A47A8B432343084C2B6023688B43074909688A18527A1343236000F078FD38BDEC300000C0010B40C4010B40D5
:40204000AC04002008B501238B40021C581E002A02D0111C00F010FE800808BD064B1A781C235343054AD3185B68054ADB7A013B1343044A13607047FD010020102F00001C
:402080000000060200020B4008B5031CC07A19881A7BFFF7D7FF024B80B2186008BDC04614030B40F0B50124364D87B00A2000F0F9FA2C60182000F027FD334B334F9C4644
:4020C0006246334B334E136000233B6006333360802331483149324A5B0404600B601460304B0634FF341C602F4B033CFF3C1C602E4B013C1C600195151CDE340297039677
:40210000284B294E294FFF34049005911A68520703D4002C03D0013CF8E7002C01D108223A60002462461460029A0A201460832252001A6000F0C0FA0A2000F0A9FA039B61
:4021400001221C60049B80211C60059B49041C6050232B60164B1A60019B164A1C6013680B43136002233360E223FF33124A1268520702D0013B002BF8D1104B3B6007B041
:40218000F0BDC04680010B40B0020B40B4020B400101010088020B4080020B4084020B40F0010B40F0000B40F8000B4040030B408C010B4000020B4000000B400103000070
:4021C00008B5044A044B91680B439360FFF76AFF08BDC0469803002080000100F8B5041C077E857E00F099FC0F22BA40266807213368A94093430422BA4064681343226804
:402200008A432260336000F08CFCF8BDF8B51C24124F134D3B78134E6343EB185868002333703A78317862430A334B43AA189268D3180D4A1360FFF7E3FE3B78307863438A
:4022400044435859094B00191860FFF7C7FF084800F0E0F8FFF7B4FFF8BDC046FD010020102F0000FE010020AC040020B0040020A12B000008B5021C1C235A434B4304498B
:402280005058C018034B1860FFF7A8FF08BDC046102F0000B00400200F2238B50168857E041C007E0B68824093430B6000F035FC0722AA4061680B6893430B6000F031FCF1
:4022C0000122607EA16882400B6893430B6038BD10B5054C2378012B05D1044B1868FFF7DBFF0023237010BDFF010020B0040020F8B51C24231C071C43430D4EFFB2F318B4
:402300005D68FFF7E5FF0B4B1F701A7854430A4AA159116019787F23084A90689843031C281C0B439360FFF7AFFEFFF797FEF8BD102F0000FD010020B00400209803002066
:4023400070B51C24231C4343104A114DD2180A23C9B22970297856684B439268D3180D4A1360FFF7C5FF301CFFF74AFE28780A4B44431A6810191860FFF730FF0122074B37
:4023800007481A7000F046F870BDC046102F0000FE010020AC040020B0040020FF010020752B00000223044940000A689A43D2B2034013430B60704700030440044B1A68C9
:4023C000002AFBDB034A0002104318607047C0460000014041000080034B1A68002AFBDB024A1A607047C046000001404100004010B5041C00F091FB0449054A0B68A405D6
:40240000134023430B6000F08CFB10BD08E400E0FFFF3FFF10B58024054BE4001C60054B98660320FFF7E4FF034B1C6010BDC04680E100E00000002000E100E082B06A4628
:402440000C4B0D4900930D4B01930D4B1A600D4A1160C0461A68120F0F2A02D11868C0B205E01A680020120F0A2A00D0186802B07047C046B6E900001600008000020020FD
:4024800008001040040010400A4B0B4A0B491A600B4A1160C0461A68120F0F2A02D11868C0B205E01A680020120F0A2A00D018687047C04608001040B6E800001500008017
:4024C0000400104082B06A460C4B0D4900930D4B01930D4B1A600D4A1160C0461A68120F0F2A02D11868C0B205E01A680020120F0A2A00D0186802B07047C046B6EA0000FE
:4025000017000080000200200800104004001040F0B50025A7B0029503957F2853D8A94251D00190802206A800F064FC284B04AF04937F23274C7B60274E284B2760336028
:40254000C04623681B0F0F2B02D12568EDB204E023681B0F0A2B00D025680295029B002B33D100F0DAFA051CFFF768FF0390039B002B02D1FFF788FF0290029B002B18D1A8
:40258000174A01990492049A0804164910430490104A27603160C0462168090F0F2902D11368DBB204E01168090F0A2900D013680293039B002B02D1FFF784FF0390281CFA
:4025C00000F0AFFA01E004230293029827B0F0BDB6D70000080010400400104004000080B6D800000500008010B5041C00F095FA102C04D803210C4A13688B430FE0202C3D
:4026000005D80321084A13688B43023906E0302C06D80321044A13688B4301390B43136000F07FFA10BDC04630001040024A034B11680B401360704700000740FFFFFFBFA6
:40264000024B18684000C00F7047C04600000740024B8000C3181868196070474000002038B5041C0D1C00F058FAA308074A9B009B180322144094400634A240A540196831
:4026800091432943196000F04CFA38BD00E400E01F2318401E3B8340181C014B1860704700E100E01F2318401E3B8340181C014B1860704780E100E01F2318401E3B8340F0
:4026C000181C014B1860704780E200E0034A044913689BB20B4313607047C0460CED00E00400FA0510B5041C8022074B1202944205D9586800F008FA044BE418F4E79868B4
:40270000604300F001FA10BDA80000200080FFFF37B500F091F9002847D000F0FEF9234A234B041C1B681168072213409B0018331A1C0B079B0FDA401E48131C01681E4AA1
:40274000114080220D1C1D49D20159438918C90B4A1E2A43111C192B02D8194A131C0EE0184D194A9A18EB181A3B1D78A02312785B031943AB18FF2B00D9FF239B050B430F
:40278000124D03602B6830200193FFF72DFF80210F4AC905136814200B431360FFF7A2FF019B201C2B6000F0BCF937BD28000340080F03400800074000F800C040420F0096
:4027C0000000D43FED300000CDF1FF0F3000104000000740F7B50423021C9A43182A06D00C23021C9A43202A01D0302842D1041C00F093F900270190FFF722FFB84202D049
:40280000FFF714FF013707267F201B4D1B4A2B681B49B3432B601B4BE3181B78DBB21360194A1368B3431360184A0B68A21812788343024013430B604D3800F065F9182C12
:4028400011D9231C2A681C3B9B08B2433340134332202B6000F058F9183C2868A4083440B04304432C60012F01D1FFF751FF019800F057F9F7BDC046080F03400C0F03406A
:40288000180F0340CDF1FF0F100F0340B4F1FF0F08B5034B1B7B584300F036F908BDC046A800002008B500F038F90421034A13688B43136030BF00F034F908BD10ED00E025
:4028C00008B500F02AF90421064B074A1B889BB21360064A13680B43136030BF00F021F908BDC04652F1FF0F0400034010ED00E0074A084B11680B40802149000B43136006
:40290000054A064B11680B4005490B431360704734000340FFF0FFFF18000340F0F0FFFF08090000054A064B11680B401360054A054B11680B4013607047C04634000340DE
:40294000FFF0FFFF180003400F0F0000F7B580242C4B64001A682C4B1A401123A2424ED12A4A14682A4A944249D1041C294A643C944244D8002942D0274B284D1A681F1CE4
:40298000002A35D02A680723002A38DA244D0A332A68002A33D053335843224B0C1CC018214900F069F9214A061E214B964211D9FA212A6889001D68019200F05DF9061CC6
:4029C0000198A90A684300F057F9282100F054F9704309E0196828684843890A00F04CF91449704300F048F9002320603B6006E00F4A1268920A2A6001221A600723181CC1
:402A0000FEBDC046340003400F0F000018000340080900001C841E00180200201C0003402000034071020000C409000060D10000B8000020409C0000014B1868C00F7047A3
:402A4000000007400022014B1A60704738000340014A024B1A6070476588EDAC38000340034A80B213681B0C1B0418431060704740000340014B186880B2704740000340AE
:402A8000014B18687047C0463C0003400121024A13680B4313607047440003400121024A13688B43136070474C0003400121024A13680B43136070474C00034010B5041CE1
:402AC00000F02BF80449054A0B68A405134023430B6000F026F810BD04E400E0FFFF3FFF10B54024044B1C60044B98650320FFF7E5FF034B1C6010BD80E100E000000020D3
:402B000000E100E0000000000230800803D001300238FCD1C046C0467047EFF3108072B6704780F3108870470D4B0E4819780E4B00681A681C234B430C4992B2CB185B68AB
:402B4000198801238B40013B09499A4203D20B785B001A5202E00A78520013527047C046FD010020AC040020D0000B40102F0000EC300000832208B5064B52001A60FFF78B
:402B8000D3FF054BDA8899680132DA80034A0A409A6008BDF0000B40980300207FFFFEFFF8B51C24264E274A3378274D63439B5883222F7852006743DF19244B1A60FFF793
:402BC000B3FF381CFFF768FB33781E4A6343D318586833781B496343CB189B7D2A78013B934218D92B780133DBB22B7033782A785C430A2353430C19A268D318144A136025
:402C0000FFF7FEF930782978C0B2C9B2FFF732FBFFF748FA13E000232B700E4B0E4A98680E49127801409960012A02D1FFF7C8F805E00B4A02409A60DA880132DA80F8BDCB
:402C4000FD010020102F0000FE010020F0000B40AC04002098030020FC010020FFFFFEFF7FFFFEFF02B4714649084900095C49008E4402BC7047C046002243088B4274D3FC
:402C800003098B425FD3030A8B4244D3030B8B4228D3030C8B420DD3FF22090212BA030C8B4202D31212090265D0030B8B4219D300E0090AC30B8B4201D3CB03C01A524115
:402CC000830B8B4201D38B03C01A5241430B8B4201D34B03C01A5241030B8B4201D30B03C01A5241C30A8B4201D3CB02C01A5241830A8B4201D38B02C01A5241430A8B42EC
:402D000001D34B02C01A5241030A8B4201D30B02C01A5241CDD2C3098B4201D3CB01C01A524183098B4201D38B01C01A524143098B4201D34B01C01A524103098B4201D31F
:402D40000B01C01A5241C3088B4201D3CB00C01A524183088B4201D38B00C01A524143088B4201D34B00C01A5241411A00D20146524110467047FFE701B5002000F00CF8AA
:402D800002BDC0460029F7D003B5FFF775FF0EBC4243891A1847C0467047C046014B18687047C0461C0100200E4B70B500251E1C0D4CE41AA410A54204D0AB00F3589847EA
:402DC0000135F8E700F0A0F9084B00251E1C084CE41AA410A54204D0AB00F35898470135F8E770BD1431000014310000143100001C310000002310B5934203D0CC5CC454BF
:402E00000133F9E710BD031C8218934202D019700133FAE77047000000000000010203040506070846323232323232320001020304050607D007D007D007D007C201C20136
:402E4000C201C201C201C201C201C201C201C800C800C800C800C800C800C800C800C8009600960096009600960096009600960096000000202020202020202020000C0083
:402E8000640028280F031E64050800000010100096003C3C140105640A04000058021000500032320A01056405040000400610008C003C3C140105640A04000096001000DC
:402EC0005A003C3C140105640A04000064001000C80064280F0305640A04000000101000640028280F0305643204000000101000640028280F0305640A0400000010100021
:402F0000640028280F0305640A0400000010000060300000BA0300204A04002000000000F301002001000100060100000C300000CA0300205404002000000000F101002099
:402F4000010001000601000028300000DA0300205E04002000000000EF010020010001000601000044300000EA0300206804002000000000ED010020010001000601000034
:402F800060300000FA0300207204002000000000EB01002009000100060100007C3000000A0400207C04002000000000E90100200100010006010000983000001A0400201E
:402FC0008604002000000000E70100200100010006010000B43000002A0400209004002000000000E50100200100010006010000D03000003A0400209A0400200000000005
:40300000E30100200100010006010000000002400800044000000440040004400F00000001000000000000000000024008000440000004400400044000000F001000000020
:4030400010040C00000002400800044000000440040004400000000F400000001806120000010240080104400001044004010440000F000004000000080206000000024014
:40308000080004400000044004000440F00000000200000004010300000002400800044000000440040004400000F0002000000014050F000000024008000440000004401A
:4030C00004000440000000F0800000001C0715000001024008010440000104400401044000F00000080000000C03090000EEDBC9B9AA9B8E82766B60564D443B332C241D0F
:4031000017100A0443000000F8B5C046F8BC08BC9E4670472D01000075140000F8B5C046F8BC08BC9E46704705010000403100008800002098000000980300000000000082
:403140000000000001000000010000000101010101010000050000004006000002000004010000000000E02EC05D00001800000000366E010000000000000000000000000D
:4031800000000000000000000000000000000000000000000431000000000000000000000000000000000000000000000000000000000000000000000000000000000000DA
:4031C0000000000000000000000000000000000000000000BC00002000000000000000000000000000000000000000000000000000000000000000000000000000000000F3
:40320000000000000000000000000000000000000000000000000000000000000000000000000000000000000000000000000000000000000000000000000000000000008E
:40324000000000000000000000000000000000000000000000000000000000000000000000000000000000000000000000000000000000000000000000000000000000004E
:40328000000000000000000000000000000000000000000000000000000000000000000000000000000000000000000000000000000000000000000000000000000000000E
:4032C00000000000000000000000000000000000000000000000000000000000000000000000000000000000000000000000000000000000000000000000000000000000CE
:403F40000000000000000000000000000000000000000000000000000000000000000000000000000000000000000000000000000000000000000000000000000A01000036
:403F80000000000000000000000000000000000000000000000000000000000000000000000000000000000000000000000000000000000000000000000000000000000001
:403FC00000000000000000000000000000000000000000000000000000000000000000000000000000000000000000000000000000000000000000000000000000000000C1
:0200000490303A
:02000000B1E06D
:0200000490402A
:1000000000000000000000000000000000000000F0
:0200000490501A
:0C0000000002191111A900011920C38988
:0200000490600A
:0100000001FE
:00000001FF