:400000000008002011000000CD120000CD12000008B502F071FC01F061F9000010B572B6EE22234B12021A60EE22224B224C1A60224B04321A60224B01321A600C23214A33
:4000400018201360204A13600222204B1A60DB221F4B12011A6003221E4B1A601E4B21321A601E4B203A1A601223236002F006FBFE2280211A4B12021A601A4B1A4A49000F
:400080001A601A4A01201160194A1A600022194B1A60194B40321A60184B01321A6011232360174B313A1A6001F060F910BDC0460003024000040240300010400000044029
:4000C0001800044000010440180104400003044008030440000404400804044018040440000301400000014040FF00800403014041FF008028000340080101400001014031
:40010000C0020B4010B5064C2378002B07D1054B002B02D0044800E000BF0123237010BD1801002000000000C02C000008B5084B002B03D00748084900E000BF0748036815
:40014000002B00D108BD064B002BFBD09847F9E700000000C02C00001C010020880000200000000008B500F02BF800F0DFF800F001FC01F07DF8F8E708B502F0DBFB0C4845
:4001800000F0E9FE002801D101F090F8094A136801331360084A1368013313600023074998004258013301324250042BF7D108BD4E0200209C0100208C010020780100203F
:4001C000F0B5A3B072B68021484A494E136809040B431360301C002100F0B6FE4548464900F0B4FE4548012100F0B0FE4448C42100F0ACFE4348002100F0A6FE42480121B9
:4002000000F0A2FE62B601F01FFB01F01DFB00F081FE02A80021802202F049FD371C0023FE2292019A18127802A9CA540133802BF6D1481C082100F01BFB02AB1B78E32B39
:4002400003D102AB5B7A834206D0FF23BB7100F0F5FD0023BB7108E00024E0B202AB0134195D00F0DDF8082CF7D100F023FA1924013CE4B200F05CFB002CF9D101F030FCE0
:4002800000F002FB01F094FC72B600F0DBF91F4DE3B2181C019300F077F9011C281C00F055FE019800F062F9011C281C0134103000F04CFE0235042CEAD162B651213A1C21
:4002C000972001F007F901F07BF802F03BFB104802F05AFB0020732100F0B2FF02F03AFB301C012100F030FE23B0F0BD000003404E020020A102002077140000A3020020DD
:40030000A5020020A8020020A7020020780200207901000008B5002001F098FF0A2002F00BFA012001F092FF08BD000070B5294800F011FE3D2801D102F01CF9264C201CE0
:4003400000F009FE061E012E2BD102F03AFB051C01F0AEF883060FD401F0B4FA01F03EF802F002FA01F03EF801F0ADFA281C02F02CFB1A4B1E7002E0281C02F026FB201CB4
:4003800000F0E9FD01280CD000F0D2FA01F0A8FB00F07AFA01F00CFC732000F039FF00F085FF00F005F90E4800F0D5FD002801D000F0D0FC0B4C201C00F0CDFD3E2807D140
:4003C00000F0F0F800F03AFD201C002100F0BCFD70BDC0464F0200204E0200208C000020560200205502002010B5041C034800F0B2FD0123A3401840C0B210BD5402002066
:4004000072B662B6044B1A5C1C235343034AD3189B68587A7047C046C42C0000B02D000072B6054B1A5C1C235343044AD3189B68597262B67047C046C42C0000B02D0000DF
:40044000344BF0B51E5C1C237343334A071CD3185B6887B01888012383403220013B5843642102F05DFB00257F23041C03932B1C01950295029A0399521852100492934285
:4004800028D06B461B7C381C191C0593FFF7C8FF301C002101F0A8FE01F0E2FD01F092FB002802D002F052F9F8E71C2373431A4AD3189B681B88A34203D30193059B029348
:4004C00002E01D1C059B0393029A0399049B8A42D0D11DE02B1BA54200D2631B019A0199A21AA14200D30A1B381C0399934200D30299FFF795FF301C002101F075FE01F0A2
:40050000AFFD01F05FFB002802D002F01FF9F8E707B0F0BDC42C0000B02D000082B072B6064B1B5C01931C23019A5343044AD3185B6862B6987AC0B202B07047C42C000099
:40054000B02D000082B072B6064B1B5C01931C23019A5343044AD3185B68997262B602B07047C046C42C0000B02D0000044B1A5C1C235343034AD3185B6858887047C046EB
:40058000C42C0000B02D0000044B1A5C1C235343034AD3185B68D8897047C046C42C0000B02D00000022014B1A70704734010020F7B572B600251F4E1F4F301C3B1C083338
:4005C000EC5C00F0CBFC1C223B5D53431B4AD3185B6801935B8883420ED0201C184B1C304000C018023000F0B9FC1C22EB5D5343124AD3185B685880301C103800F0AEFC5D
:40060000019BDB8983420ED00D48143464002018023000F0A3FC084BEA5C1C235343074AD3185B68D88101350236042DC4D162B6F7BDC04688020020C42C0000B02D0000DA
:400640004E020020F8B572B60024184E331C0833E75C0C36381CFFF761FF011C201C144D0A30401900F070FC381CFFF7C9FE011C201C1A30401900F067FCA65D301CFFF7A4
:400680004DFF011C201C1230401900F05DFC301CFFF7B6FE011C201C22304019013400F053FC042CD1D162B6F8BDC046C42C00004E020020F7B50025234F1C213B1C08332C
:4006C000EA5C5520BB5C214E4B4321491236CB185B6864211C880123A3401C1C013CA4B253006043009302F01BFA1A4B009A0196D0521426201C6421704302F011FA019B49
:40070000009A1C21D0523B1C0C33EA5C5520BB5C57004B430E490135CB185B6864211C880123A3401C1C013CA4B2604302F0F8F9084B6421F852301C604302F0F1F9019B36
:40074000F852042DB8D1F7BDC42C000034010020B02D00003601002070B50F4D0F4C2E18337BEA5C1C235A43A21892681188327A0B4EAA5C2D5C5A436B43A2189268E3187B
:4007800012889C689219531A2380064B18184A3000F0DCFB70BDC046C42C0000B02D00000080FFFF4E020020F8B50026F0B2FFF71BFE002852D02B4B00211A1C0832B25C4D
:4007C0009F5C1C237B43284A381CD3189C68258801F060F925497200002835D00B1C2233F35C002B02D10B1C26339D520B1C2633985A031C85420BD328339D4220DC002183
:4008000063882171EB181B1A9BB26380EB1A16E0283B9D4214DB63882E31EB181B1A002020719BB2895AE81A6380E0808B4207D261808D4202D9691AE18001E00023E38083
:400840000A4B26339D5202E063882E318B52381C002101F01FF9054B2233F0540136042EA4D1F8BDC42C0000B02D00003401002000234118884204D0027801309B18DBB2B1
:40088000F8E75842C0B2704710B500241C236343084A201C9B189B6800211A8800F090FB201C013401F070F9092CEFD1052000F081FB10BDB02D0000034A044B11680B40EB
:4008C000184310607047C046C4010B40FFFF3FFF70B5051C80200004FFF7EEFF134C002163191B7AE05C01F07FFC01F0B9FB01F069F9061E02D001F029FFF8E78020C003D5
:40090000FFF7DAFF63191B7B311CE05C01F06CFC01F0A6FB01F056F9002802D001F016FFF8E7281CFFF718FF70BDC046C42C000008B50F4B1A78012A0CD00020FFF7C8FF42
:400940000120FFF7C5FF0220FFF7C2FF0320FFF7BFFF08BD0021081C197001F045FC01F07FFB01F02FF90028E7D001F0EFFEF8E78C000020F0B5D04B85B01C78E4B2002C10
:4009800000D0E5E1FFF7D4FF0194CC4B00211A1C0832A65C9D5D281C00F0E6FA0021281C00F030FBC649A300C850021C0021281C00F048FB281C00F067FFE3B2181C009395
:4009C000FFF712FD00284ED0281C002101F062F8002848D11C226A43BA4B9A189368BA4A02931988931C9C4667467300DF5B8F4204D912329A5A031C8A4203D3301CFFF710
:400A00001FFD0123AD4A111C0C31605C115C1C224A43AC498A1892681188AB4A961CB44667464600F75B8F4203D91232B25A8A4202D3FFF705FD01E0002B14D01926013E0D
:400A40000098F6B2FFF744FF002EF8D101F048F8029B281C1A88311C00F0B2FA281C01F093F8FFF7EFFD954BE25C1C235343954AD3189B68DB88002B01D0012301930134BB
:400A8000042C00D081E70024E0B2FFF7ADFC00287AD08A4B8C4E1A1C0832A25C351C9B5C00931C23009A5343864AD3189B680393864BE75C864B002F22D0864AA25C012A4D
:400AC0001ED1321C002563003A329D520098291C00F0E0FFA300F618874209D18223726C9B009A421DD902237A4A7564A35418E00098291C756400F0CDFF744BE05410E0E0
:400B00000133E25CA300012A08D10021EB180098596400F0BFFF3635605502E0ED1800236B646B494B1C0293E35C022B2CD1664D634B2E1CA2009B5860003A36815B9FB226
:400B4000B94220D95D4ECB1B1036865B281C5430B34215DD035D0133DBB20355042B13D901230299AA18635400235364009A1C335343544A0398D318197E00F0EBFF03E07D
:400B80000023035500E087530134042C00D07BE7FFF70AFE72B600244F4DE0B2FFF724FC2F1C061C203700280DD0444B281CE25C1C235343434AD3189E68318800F0C6F946
:400BC000F188381C05E0281C311C00F0BFF9381C311C013400F0BAF90235042CDDD100243E4DE0B2FFF700FC011E0AD0334B1A1C0C32A25C9A5C1C235343324AD3189B682B
:400C00001988281C013400F0A1F90235042CE8D100272A4BF8B21A1C0832BE5C9D5DFFF7E3FB76002E4C002822D0281C002100F031FF051E012D10D0002819D0032817D867
:400C4000201C00F088F90323011CB34099430223B3401E1C0E43F1B211E0201C00F07BF90323011CB340B54099432943C9B206E00325201C00F06FF9B540A843C1B2201CBF
:400C8000013700F061F9042FC3D1201C00F063F90D4D2B78834201D0FFF73CFB201C00F05AF9287062B60A4B5A791C1C012A19D0022A26D032E0C0464E020020C42C000066
:400CC000F4010020B02D0000340100206A0100208C0000208D000020A9020020B90200209F020020019B002B02D00023AB6515E0AB6D2A2B12D90223C820637100F088FAF6
:400D00000CE00022AA65019A002A07D0012273205A7100F07DFA00F0C9FA19E001F051FE051C00F0C5FB83060FD400F0CBFD00F055FB01F019FD00F055FB00F0C4FD281CB5
:400D400001F043FE0123237002E0281C01F03DFE05B0F0BDF7B500240190019B2341DB0757D5314E201C331C0833E75C03237A0093401A1C2D492E4D0B780A309343401959
:400D80000B7000F0E8F8011C381CFFF7DBFB201C1A30401900F0DFF8011C381CFFF740FB331C201C0C33E35C12304019009300F0D2F8011C0098FFF7C5FB201C2230401920
:400DC00000F0C9F8011C0098FFF72AFB1925013DE0B2EDB2FFF77CFD002DF8D11C23F75D144A7B43D3189B68291C1A88381C00F0E7F8381C00F0C8FE1C220D4B60005B302E
:400E0000C018335D53430B4AD3189B68198800F09DF8013400F064FE042C9ED10648002100F092F8F7BDC046C42C0000340100204E020020B02D000056020020002030B573
:400E4000011CA1B001F0D0F901F00AF900F0BAFE002802D001F07AFCF8E7041CE0B2FFF7C3FA002811D080200004FFF725FD1E4D2B1C0833E05CFFF7E3FA80200C35C003A4
:400E8000FFF71AFD605DFFF7DBFA0134042CE5D11534013CFFF74CFD002CFAD100F020FEFFF7F2FC00F084FEFFF7CCFB80226846211C01F0FCFEE3236A4613700134601E41
:400EC000C0B2FFF79DFA6B461855082CF6D1211C581CFFF7CDFC6B46694658727F2001F06BFA21B030BDC046C42C0000074A084B11680B40012802D18021490403E0022838
:400F000002D1C02189040B4313607047C0010B40FFFFFFFC09490A4810B50268094B0C681A4023409E24E40322438A242404234302600B600120FFF7D9FF10BDC4010B40B8
:400F4000C0010B40FFFF30FF01707047CBB2090A0370417070470078C0B270470378407800021843704700001C2343430E4AF0B5D3189B684A000D4F09189A184E000C4DED
:400F80001488F35B705B9C4202D9261C1C1C331C4900785216886E52834200D9031CA34200D2231C1380F0BDB02D00001C030020E6020020014B18707047C046920000202F
:400FC000062370B50C186343094E95B29D53F3185D809D80074BD201181800234354064963005D520549A4005D52054BE25070BD18020020E80100201C030020E6020020FC
:40100000F8020020F0B506240B185C430B4D49002A19675B56889388F719FF181C235843074B1818836859180B886653F8189388800853800B889380F0BDC0461802002022
:40104000B02D00001C23F0B5434389B001915949041CCB1859689B6802910199019D49005B18554900938C4601991B880918604604918900095851480019405D06ADEE1DDB
:401080003070009847883078D51BC0B20390604605900398052800D97AE001F037FD03071A2D4559009BD1015A8071E0444ADB01107801228240013A51435B18C340191C59
:4010C000002D67DB3F4B6200D35A02229D425AD860E03C4A6000825A954259DDDB015B1859081B0ADF1B029A029B92795B889B1803229F4247DA4DE0314ADB011078012225
:401100008240013A51435B18C340191C2E4B6200D05A06AB0733854201DB042216E02B48125A954236DA0EE027486200105A854203DBDB01591849082CE0244BD25A06AB3A
:401140000733954201DA052200E003221A7021E01E4A6000825A954218DACA09D8019A4202D94118490807E0154B1A7801239340013B59434118D140CB09DF1B029B1B7941
:401180009F4207DC012206ABDA7103E0032300E001233370049B059A9B00D150074A06AB07331B781419019AC909A354009B198009B0F0BDB02D0000F8020020E8010020A8
:4011C00092000020002D0000DC2C0000EE2C0000002337B5051C019301F0DEFAFA230A249B005D43281C01A901F004FB002803D1064B019A1A6005E00120013C01F0C6F9A8
:40120000002CEFD101F0E2FA37BDC0469001002010B5084C0A2160602368584301F080FC054B18606168054801F07AFC0023A060E36010BD900100209400002060EA00008C
:4012400038B50D1C041C0A20FFF7C2FF281CFFF7DFFF01F063FB054B1B68C01801F054FB002C01D001F042FB38BDC0469400002010B50C4CE268A3689A4212D30023E36092
:4012800001F060FB0A20FFF7A3FF6068FFF7C0FF01F04AFB044B1B68C01801F035FB01F059FB10BD900100209400002008B501F049FB01F039FB044B1B68C01801F024FB5A
:4012C00001F048FB08BDC0469400002008B501F0B9FC03680C2B00D1FEE7FEE770B51049104B01394A1C15D000221E685C689D68A018AA4203D0B058A0500432F8E7021C2A
:40130000DC68151AA54202D0002520C2F9E710330139E7E701F09CFCFEF724FFFEE7C04601000000CC2F000008B500239A000A49032B01D809498958094801338150202B1F
:40134000F4D1FEF76BFE0022064B1A608022064B92051A6008BDC046CD12000000000000000000208000002008ED00E00B4A10B51368002803D0802109060B4301E05B0050
:401380005B081360064B202419680A1CA243002801D0221C0A431A6010BDC04600200240280003408021054A08B5136809060B431360072001F0C0F808BDC04600000840BD
:4013C00010B5054C2378002B03D100F00FF801232370FFF7E7FF10BDA001002008B500F091F808BD08B500F097F808BD802210B500241A4B52001A60194A1A4B1A491A60C8
:401400001A4B1B4A072013601A4A14601A4A11601A4A13601A4B1C6001F098F80720032101F072F81749072001F066F85222164BFF321C60154B1C60154B1A60154B1C60D2
:40144000154B1C60154B1C60154B1C70154B1C70154B1C80154B1C7010BDC0460000084000080040600008403A00FE000701008000030840040308401003084000020840EA
:40148000040208402D150000C80E0840880E0840480F0840080F0840C80F0840880F08403403002038030020320300203003002010B5072001F04AF81F21054B07201C78E0
:4014C0001A78E4B28A431A7001F036F8201C10BD3803002070B5061C0D1C141E0BD0072001F034F8044B07201C60044B1E80044B1D8001F021F870BD3C0300204003002065
:401500003603002008B500F0BBFE0122014B1A6008BDC046880E0840002208B5024BFF201A6000F09FFE08BD880E0840F0B59E4B87B01B68002B00D0984702229B489C4E52
:4015400004689C49FF320D68338822400396029004912DD0202498490A68520052080A60964A1078A04310701078103C2043107093480568254206D1924C24789C4206D0B7
:401580001478082501E0022514782C4314708E4C8E4A25682A40226000228D4C226002608C48027080200A68000602430A60F7E0E90601D588490A600A22154200D185E044
:4015C000864A1268520744D5854A824811680278002A10D0012A3AD1824F834E3888002833D03260814AC9B212680138D2181170013338802BE07E4E37887B4EB94224D2A4
:40160000012333607B4B1B88994201D25A1A92B2744B1A80072A02D80123037011E06A4B6B48082A06D1A0261A68360232431A60002305E080261A68B60132431A60082357
:401640000360604B19700B1C01E00222326004213AE05D4802680190920437D50221294008D0654A11681F2206680A4057493140016007E05B4E3288083A92B23280082AE9
:4016800001D908220121161CD718B81B8446002E0DD0564F013E3F68381C6F46604400904F480068F875F87D009F3870ECE73B1C002908D18026019A01981268360232431E
:4016C0000260434A11600C214C4A11600222154247D0E10613D500213D48016038480160384909788B4200D008323449224008780243202082430A700021364A1170620687
:401700002DD5202110202D4A13780B4313703C4A2C4B12681B78024211D08025344A314912886D02D21A0A80364A1168294311601568354929401160214A106002E004218B
:40174000234A116001211025304A02981160304A0260304802682A430260234A1160029A1460049A126852071AD5204A1D4914680A88294D002A07D0E0180078013AC0B262
:401780002860013392B201E0FF202860234805681F2028400828ECD10A801021204A1160039A138007B0F0BDA4010020400F084032030020000E0840000008403803002061
:4017C000880F08403003002060000840FF5FFFFFC80F084034030020880E0840CC0F084040030840A80100206C0008403C030020400300203603002008030840C00F0840AF
:401800006400084004020840FFFFFEFF800E0840FF0F0000480F08404002084008020840800F084010B5074C2378002B05D100F0F5F800F04BF90123237000F045F800F0E4
:401840005FFA10BDAA01002038B5FFF7EBFF041E13D100F0E7F9041E0FD101F0B2F8051C00F0B0F9002805D000F070FF281C01F0ACF8F2E7281C01F0A8F800F031F900F090
:4018800097F9201C38BD000070B50126082812D80A4B1036DB68C340DB070CD51C254543074B041CED18281C00F03EF8291C061C201C00F093F8301C70BDC04644030020AF
:4018C000B02D00007047704700220E4B70B51A610D4C013A0D4D0E4EDA60B54210D00021227D23682970062A07D1E068884204D0628AD979520001F0DAF91C34013DECE7A0
:4019000070BDC04644030020B42D000060030020570300204A880B889B1A0022CA800279934200DDCB807047F0B50025061C2F1C836885B0029343680193037E03930A240A
:401940006C43029B1C19F38A9D420BD2211C039A019800F0C6F8211C071C0198FFF7DAFF0135ECE7381C05B0F0BD0000F7B5CA8A0B6952009A18019201228F684D68019991
:401980008B4227D0F988144C8C466988224201D1E9890A37041CAE79144003D189198C4503D80DE0891B8C4503D9A24208D0141C00E0002419780139C9B21970002906D11C
:4019C000904320430121002C00D1E979197001335200D4E7FEBDC0465555555538B50E4C051C2318187D0B7E062B01D1FFF7BEFF1F220121631918756B0915400A1C043348
:401A00009B00AA40E158002802D191430A1C00E00A43E25038BDC046440300208A22F8B5184C0021201C520001F041F9164B201C2380B0235B006380593BFF3BE383631C97
:401A4000124C0222211CDA770A318E32223001F025F90F4B1A1C2133FF33191C231C24328A420DD0D6891D1C301C1468013804D32F78013567720A34F8E79B191C32EFE756
:401A8000F8BDC04644030020D6E3FFFF142D0000942D0000021C10B50020082A11D81C235343084CE3185C8EA1420AD234331B78062B06D1044849008218137D0320CB4071
:401AC000184010BD942D0000440300200023024A9380024A1360704744030020C00100207047F0B50B884C88A34205D24679E51AB5421DD8002603E000261D1B0E72013612
:401B00000779BD420ED8D2B2062A21D10A7924021443FF2254431B02E3181A0A1B0C4B800A7115E04079854212D2002EEBD00FE00C7A007AA04202D901340C7208E0D2B22C
:401B40000020062A02D04B80087201E00871FAE70020F0BDC9B2062901D1002303710388438000230372704708B51C230A225843044B51431B189A685018197EFFF7EAFF8D
:401B800008BDC046B02D000038B51C23041C4343064AD318DB8A5D1E002B05D0201C291CFFF7E2FF2B1CF6E738BDC046B02D000010B50924013C03D3201CFFF7E5FFF9E741
:401BC00010BD0000024B9868802318407047C0464403002010B58024094A640293681C401123002C09D1103B082806D8D268C2401A4202D000F0D0FA231C181C10BDC04636
:401C000044030020064B10B59C6880235B021C401120002C02D100F049FA201C10BDC046440300200C4B10B59C68802311201C4011D1201CFFF7CEFF002809D1074B082C35
:401C400002D001221A7000E01870FFF7DBFF02E00134092CEDD110BD44030020C401002010B5114C63780133DBB263706078C0B2FFF7B0FF6378002805D1082B00D120709D
:401C8000FFF7C0FF0FE0094A0006082B05D19168074B0B401843906005E093681B021B0A18439060DDE710BDC4010020440300207FFFFF00064A074B01381A60064A0002CF
:401CC00010601A68002AFCDB044A024B1A60704740000040000001400003014040FF008009221C235B42534304490133FF33CB580621013A1973002AF3D17047B02D00007E
:401D000008B5FFF7EDFF00F01DF8002008BD0000F8B50A4C0A4E231C0025163B1F6823789D4206D21C206843381800F005FA0135F5E71C34B442EED1F8BDC046C62D000046
:401D4000C22E000070B5FFF7E3FF00231021334A334C1360334A344E1360344A1160344A34491360344A13600B6034490B6034490B6034490B603449344B08680340C02041
:401D8000C000034380200B60314940010B6803430B6001212F4B30481960036876182343036080202D4B400518602D482D4B18602D482E4B186011602D4B2E4A1A60C12286
:401DC0002D4B52041A60F07FFFF774FF70232B4CF17F25682A489D4300F0A2FE294A231C904201D8202200E0302215431D601B68254A48201343254A136000F0D9FD0F22AB
:401E0000234B1A600022234B1A60234B0A321A60C022224B12031A6070BDC046F4000B4001000010B4020B4044030020C0020B4020030B4088020B4084010B4080020B40D6
:401E400084020B4080010B4000040240FFF0FFFF94020B40A0020B40A8020B40A4020B401100800088010B400001000190020B40C0010B4000008301C4010B409800002042
:401E800000366E01001BB7000010008000000B4000030B40F0010B4010030B4004020B4038B5041C00F08DFD7F210A4A0A4D12782B68A418A47A8B432343084C2B60236830
:401EC0008B43074909688A18527A1343236000F07CFD38BD8C2F0000C0010B40C4010B405804002008B501238B40021C581E002A02D0111C00F014FE800808BD064B1A78C0
:401F00001C235343054AD3185B68054ADB7A013B1343044A13607047C5010020B02D00000000060200020B4008B5031CC07A19881A7BFFF7D7FF024B80B2186008BDC0462F
:401F400014030B40F0B50124364D87B00A2000F0FDFA2C60182000F02BFD334B334F9C466246334B334E136000233B6006333360802331483149324A5B0404600B60146054
:401F8000304B0634FF341C602F4B033CFF3C1C602E4B013C1C600195151CDE3402970396284B294E294FFF34049005911A68520703D4002C03D0013CF8E7002C01D108225C
:401FC0003A60002462461460029A0A201460832252001A6000F0C4FA0A2000F0ADFA039B01221C60049B80211C60059B49041C6050232B60164B1A60019B164A1C601368BF
:402000000B43136002233360E223FF33124A1268520702D0013B002BF8D1104B3B6007B0F0BDC04680010B40B0020B40B4020B400101010088020B4080020B4084020B401F
:40204000F0010B40F0000B40F8000B4040030B408C010B4000020B4000000B400103000008B5044A044B91680B439360FFF76AFF08BDC0464403002080000100F8B5041C31
:40208000077E857E00F09DFC0F22BA40266807213368A94093430422BA406468134322688A432260336000F090FCF8BDF8B51C24124F134D3B78134E6343EB1858680023A7
:4020C00033703A78317862430A334B43AA189268D3180D4A1360FFF7E3FE3B783078634344435859094B00191860FFF7C7FF084800F0E4F8FFF7B4FFF8BDC046C5010020EA
:40210000B02D0000C6010020580400205C040020492A000008B5021C1C235A434B4304495058C018034B1860FFF7A8FF08BDC046B02D00005C0400200F2238B50168857E45
:40214000041C007E0B68824093430B6000F039FC0722AA4061680B6893430622AA4013430B6000F032FC0122607EA16882400B6893430B6038BD000010B5054C2378012BBE
:4021800005D1044B1868FFF7D7FF0023237010BDC70100205C040020F8B51C24231C071C43430D4EFFB2F3185D68FFF7E5FF0B4B1F701A7854430A4AA159116019787F2338
:4021C000084A90689843031C281C0B439360FFF7ABFEFFF793FEF8BDB02D0000C50100205C0400204403002070B51C24231C4343104A114DD2180A23C9B229702978566825
:402200004B439268D3180D4A1360FFF7C5FF301CFFF746FE28780A4B44431A6810191860FFF72CFF0122074B07481A7000F046F870BDC046B02D0000C60100205804002072
:402240005C040020C70100201D2A00000223044940000A689A43D2B2034013430B60704700030440044B1A68002AFBDB034A0002104318607047C04600000140410000807E
:40228000034B1A68002AFBDB024A1A607047C046000001404100004010B5041C00F091FB0449054A0B68A405134023430B6000F08CFB10BD08E400E0FFFF3FFF10B5802417
:4022C000054BE4001C60054B98660320FFF7E4FF034B1C6010BDC04680E100E00000002000E100E082B06A460C4B0D4900930D4B01930D4B1A600D4A1160C0461A68120FD4
:402300000F2A02D11868C0B205E01A680020120F0A2A00D0186802B07047C046B6E9000016000080C801002008001040040010400A4B0B4A0B491A600B4A1160C0461A6874
:40234000120F0F2A02D11868C0B205E01A680020120F0A2A00D018687047C04608001040B6E80000150000800400104082B06A460C4B0D4900930D4B01930D4B1A600D4A3F
:402380001160C0461A68120F0F2A02D11868C0B205E01A680020120F0A2A00D0186802B07047C046B6EA000017000080C80100200800104004001040F0B50025A7B00295E6
:4023C00003957F2853D8A94251D00190802206A800F064FC284B04AF04937F23274C7B60274E284B27603360C04623681B0F0F2B02D12568EDB204E023681B0F0A2B00D0F5
:4024000025680295029B002B33D100F0DAFA051CFFF768FF0390039B002B02D1FFF788FF0290029B002B18D1174A01990492049A0804164910430490104A27603160C04682
:402440002168090F0F2902D11368DBB204E01168090F0A2900D013680293039B002B02D1FFF784FF0390281C00F0AFFA01E004230293029827B0F0BDB6D7000008001040FB
:402480000400104004000080B6D800000500008010B5041C00F095FA102C04D803210C4A13688B430FE0202C05D80321084A13688B43023906E0302C06D80321044A1368D3
:4024C0008B4301390B43136000F07FFA10BDC04630001040024A034B11680B401360704700000740FFFFFFBF024B18684000C00F7047C04600000740024B8000C3181868C4
:40250000196070474000002038B5041C0D1C00F058FAA308074A9B009B180322144094400634A240A540196891432943196000F04CFA38BD00E400E01F2318401E3B83401C
:40254000181C014B1860704700E100E01F2318401E3B8340181C014B1860704780E100E01F2318401E3B8340181C014B1860704780E200E0034A044913689BB20B4313607B
:402580007047C0460CED00E00400FA0510B5041C8022074B1202944205D9586800F008FA044BE418F4E79868604300F001FA10BD9C0000200080FFFF37B500F091F90028E6
:4025C00047D000F0FEF9234A234B041C1B681168072213409B0018331A1C0B079B0FDA401E48131C01681E4A114080220D1C1D49D20159438918C90B4A1E2A43111C192B66
:4026000002D8194A131C0EE0184D194A9A18EB181A3B1D78A02312785B031943AB18FF2B00D9FF239B050B43124D03602B6830200193FFF72DFF80210F4AC905136814202A
:402640000B431360FFF7A2FF019B201C2B6000F0BCF937BD28000340080F03400800074000F800C040420F000000D43F8D2F0000CDF1FF0F3000104000000740F7B5042374
:40268000021C9A43182A06D00C23021C9A43202A01D0302842D1041C00F093F900270190FFF722FFB84202D0FFF714FF013707267F201B4D1B4A2B681B49B3432B601B4B68
:4026C000E3181B78DBB21360194A1368B3431360184A0B68A21812788343024013430B604D3800F065F9182C11D9231C2A681C3B9B08B2433340134332202B6000F058F97B
:40270000183C2868A4083440B04304432C60012F01D1FFF751FF019800F057F9F7BDC046080F03400C0F0340180F0340CDF1FF0F100F0340B4F1FF0F08B5034B1B7B5843B5
:4027400000F036F908BDC0469C00002008B500F038F90421034A13688B43136030BF00F034F908BD10ED00E008B500F02AF90421064B074A1B889BB21360064A13680B43E6
:40278000136030BF00F021F908BDC04652F1FF0F0400034010ED00E0074A084B11680B40802149000B431360054A064B11680B4005490B431360704734000340FFF0FFFFCC
:4027C00018000340F0F0FFFF08090000054A064B11680B401360054A054B11680B4013607047C04634000340FFF0FFFF180003400F0F0000F7B580242C4B64001A682C4B24
:402800001A401123A2424ED12A4A14682A4A944249D1041C294A643C944244D8002942D0274B284D1A681F1C002A35D02A680723002A38DA244D0A332A68002A33D0533395
:402840005843224B0C1CC018214900F069F9214A061E214B964211D9FA212A6889001D68019200F05DF9061C0198A90A684300F057F9282100F054F9704309E019682868B7
:402880004843890A00F04CF91449704300F048F9002320603B6006E00F4A1268920A2A6001221A600723181CFEBDC046340003400F0F000018000340080900001C841E00EC
:4028C000E00100201C0003402000034071020000C409000060D10000AC000020409C0000014B1868C00F7047000007400022014B1A60704738000340014A024B1A60704780
:402900006588EDAC38000340034A80B213681B0C1B0418431060704740000340014B186880B2704740000340014B18687047C0463C0003400121024A13680B4313607047B0
:40294000440003400121024A13688B43136070474C0003400121024A13680B43136070474C00034010B5041C00F02BF80449054A0B68A405134023430B6000F026F810BDC1
:4029800004E400E0FFFF3FFF10B54024044B1C60044B98650320FFF7E5FF034B1C6010BD80E100E00000002000E100E0000000000230800803D001300238FCD1C046C0464C
:4029C0007047EFF3108072B6704780F3108870470D4B0E4819780E4B00681A681C234B430C4992B2CB185B68198801238B40013B09499A4203D20B785B001A5202E00A7802
:402A0000520013527047C046C501002058040020D0000B40B02D00008C2F0000832208B5064B52001A60FFF7D3FF054BDA8899680132DA80034A0A409A6008BDF0000B40F5
:402A4000440300207FFFFEFFF8B51C24264E274A3378274D63439B5883222F7852006743DF19244B1A60FFF7B3FF381CFFF764FB33781E4A6343D318586833781B49634357
:402A8000CB189B7D2A78013B934218D92B780133DBB22B7033782A785C430A2353430C19A268D318144A1360FFF7FAF930782978C0B2C9B2FFF72EFBFFF744FA13E0002356
:402AC0002B700E4B0E4A98680E49127801409960012A02D1FFF7C4F805E00B4A02409A60DA880132DA80F8BDC5010020B02D0000C6010020F0000B405804002044030020DD
:402B0000C4010020FFFFFEFF7FFFFEFF02B4714649084900095C49008E4402BC7047C046002243088B4274D303098B425FD3030A8B4244D3030B8B4228D3030C8B420DD329
:402B4000FF22090212BA030C8B4202D31212090265D0030B8B4219D300E0090AC30B8B4201D3CB03C01A5241830B8B4201D38B03C01A5241430B8B4201D34B03C01A524110
:402B8000030B8B4201D30B03C01A5241C30A8B4201D3CB02C01A5241830A8B4201D38B02C01A5241430A8B4201D34B02C01A5241030A8B4201D30B02C01A5241CDD2C309E0
:402BC0008B4201D3CB01C01A524183098B4201D38B01C01A524143098B4201D34B01C01A524103098B4201D30B01C01A5241C3088B4201D3CB00C01A524183088B4201D339
:402C00008B00C01A524143088B4201D34B00C01A5241411A00D20146524110467047FFE701B5002000F00CF802BDC0460029F7D003B5FFF775FF0EBC4243891A1847C04606
:402C40007047C046014B18687047C046100100200E4B70B500251E1C0D4CE41AA410A54204D0AB00F35898470135F8E700F09CF9084B00251E1C084CE41AA410A54204D058
:402C8000AB00F35898470135F8E770BDB42F0000B42F0000B42F0000BC2F0000002310B5934203D0CC5CC4540133F9E710BD031C8218934202D019700133FAE77047000003
:402CC0000000000001020304050607080001020304050607E803E803E803E803FA00FA00FA00FA00FA00FA00FA00FA00FA003200320032003200320032003200320032005C
:402D00005000500050005000500050005000500050000000202020202020202020000C00640028280F031E6405080000001010003C0028280A010F640A0400009001100069
:402D40003C0028280A010F640A0400002C0110003C00282805010F64050400002C0110003C00282805010F64050400002C011000C80064280F031E640A0400000010100052
:402D8000640028280F031E641004000000101000640028280F031E640504000000101000640028280F031E640A04000000100000702F000066030020F6030020000000007F
:402DC000BB0100200100010006010000AC2E0000760300200004002000000000B90100200100010006010000C82E0000860300200A04002000000000B701002001000100CD
:402E000006010000E42E0000960300201404002000000000B50100200100010006010000002F0000A60300201E04002000000000B301002001000100060100001C2F000047
:402E4000B60300202804002000000000B10100200100010006010000382F0000C60300203204002000000000AF0100200100010006010000542F0000D60300203C040020F7
:402E800000000000AD0100200100010006010000702F0000E60300204604002000000000AB0100200900010006010000000002400800044000000440040004400F00000023
:402EC00001000000000000000000024008000440000004400400044000000F001000000010040C00000002400800044000000440040004400000000F4000000018061200DF
:402F000000010240080104400001044004010440000F0000040000000802060000000240080004400000044004000440F000000002000000040103000000024008000440AE
:402F400000000440040004400000F0002000000014050F0000000240080004400000044004000440000000F0800000001C07150000010240080104400001044004010440AD
:402F800000F00000080000000C03090000EEDBC9B9AA9B8E82766B60564D443B332C241D17100A0443000000F8B5C046F8BC08BC9E4670472D01000029130000F8B5C04603
:402FC000F8BC08BC9E46704705010000E02F0000880000209000000048030000000000000000000001010101010105004006000002000004010000000000E02EC05D0000A3
:403000001800000000366E010000000000000000000000000000000000000000000000000000000000000000A42F0000000000000000000000000000000000000000000000
:4030400000000000000000000000000000000000000000000000000000000000000000000000000000000000B0000020000000000000000000000000000000000000000080
:403080000000000000000000000000000000000000000000000000000000000000000000000000000000000000000000000000000000000000000000000000000000000010
:4030C00000000000000000000000000000000000000000000000000000000000000000000000000000000000000000000000000000000000000000000000000000000000D0
:40310000000000000000000000000000000000000000000000000000000000000000000000000000000000000000000000000000000000000000000000000000000000008F
:40314000000000000000000000000000000000000000000000000000000000000000000000000000000000000000000000000000000000000000000000000000000000004F
:403F4000000000000000000000000000000000000000000000000000000000000000000000000000000000000000000000000000000000000000000000000000C40000007D
:403F80000000000000000000000000000000000000000000000000000000000000000000000000000000000000000000000000000000000000000000000000000000000001
:403FC00000000000000000000000000000000000000000000000000000000000000000000000000000000000000000000000000000000000000000000000000000000000C1
:0200000490303A
:0200000052AFFD
:0200000490402A
:1000000000000000000000000000000000000000F0
:0200000490501A
:0C0000000002191111A900011920645818
:0200000490600A
:0100000001FE
:00000001FF